{
  "contractName": "Users",
  "abi": [
    {
      "constant": true,
      "inputs": [],
      "name": "userCount",
      "outputs": [
        {
          "name": "",
          "type": "uint256"
        }
      ],
      "payable": false,
      "stateMutability": "view",
      "type": "function",
      "signature": "0x07973ccf"
    },
    {
      "constant": true,
      "inputs": [
        {
          "name": "",
          "type": "uint256"
        }
      ],
      "name": "users",
      "outputs": [
        {
          "name": "id",
          "type": "uint256"
        },
        {
          "name": "username",
          "type": "string"
        },
        {
          "name": "password",
          "type": "string"
        },
        {
          "name": "elo",
          "type": "uint256"
        }
      ],
      "payable": false,
      "stateMutability": "view",
      "type": "function",
      "signature": "0x365b98b2"
    },
    {
      "anonymous": false,
      "inputs": [
        {
          "indexed": false,
          "name": "id",
          "type": "uint256"
        },
        {
          "indexed": false,
          "name": "username",
          "type": "string"
        },
        {
          "indexed": false,
          "name": "password",
          "type": "string"
        },
        {
          "indexed": false,
          "name": "elo",
          "type": "uint256"
        }
      ],
      "name": "UserAdded",
      "type": "event",
      "signature": "0x2e7b440a330ae1f1daf94be9d6f51147d582477dfec2ae4223958bdca788c2b3"
    },
    {
      "anonymous": false,
      "inputs": [
        {
          "indexed": false,
          "name": "id",
          "type": "uint256"
        },
        {
          "indexed": false,
          "name": "username",
          "type": "string"
        },
        {
          "indexed": false,
          "name": "password",
          "type": "string"
        },
        {
          "indexed": false,
          "name": "elo",
          "type": "uint256"
        }
      ],
      "name": "UserRetrieved",
      "type": "event",
      "signature": "0x92d091b3db2ffa384837c34fe877fabdf833c20eebc5e5216879331933889d8e"
    },
    {
      "anonymous": false,
      "inputs": [
        {
          "indexed": false,
          "name": "id",
          "type": "uint256"
        },
        {
          "indexed": false,
          "name": "elo",
          "type": "uint256"
        }
      ],
      "name": "EloUpdated",
      "type": "event",
      "signature": "0xb335b5dda2cc4db57d89e759a02e07aee7c0872d45f4c36436e57fb21244424b"
    },
    {
      "constant": false,
      "inputs": [
        {
          "name": "_username",
          "type": "string"
        },
        {
          "name": "_password",
          "type": "string"
        }
      ],
      "name": "addUser",
      "outputs": [
        {
          "name": "_id",
          "type": "uint256"
        }
      ],
      "payable": false,
      "stateMutability": "nonpayable",
      "type": "function",
      "signature": "0x079eaf34"
    },
    {
      "constant": false,
      "inputs": [
        {
          "name": "_id",
          "type": "uint256"
        }
      ],
      "name": "getUser",
      "outputs": [
        {
          "components": [
            {
              "name": "id",
              "type": "uint256"
            },
            {
              "name": "username",
              "type": "string"
            },
            {
              "name": "password",
              "type": "string"
            },
            {
              "name": "elo",
              "type": "uint256"
            }
          ],
          "name": "_user",
          "type": "tuple"
        }
      ],
      "payable": false,
      "stateMutability": "nonpayable",
      "type": "function",
      "signature": "0xb0467deb"
    },
    {
      "constant": false,
      "inputs": [
        {
          "name": "_id",
          "type": "uint256"
        }
      ],
      "name": "getElo",
      "outputs": [
        {
          "name": "_elo",
          "type": "uint256"
        }
      ],
      "payable": false,
      "stateMutability": "nonpayable",
      "type": "function",
      "signature": "0x53b09877"
    },
    {
      "constant": false,
      "inputs": [
        {
          "name": "_id",
          "type": "uint256"
        },
        {
          "name": "_newElo",
          "type": "uint256"
        }
      ],
      "name": "updateElo",
      "outputs": [],
      "payable": false,
      "stateMutability": "nonpayable",
      "type": "function",
      "signature": "0xe9307356"
    }
  ],
  "bytecode": "0x60806040526000805534801561001457600080fd5b5061112d806100246000396000f3fe608060405260043610610078576000357c0100000000000000000000000000000000000000000000000000000000900463ffffffff16806307973ccf1461007d578063079eaf34146100a8578063365b98b2146100e557806353b0987714610125578063b0467deb14610162578063e93073561461019f575b600080fd5b34801561008957600080fd5b506100926101c8565b60405161009f9190610f21565b60405180910390f35b3480156100b457600080fd5b506100cf60048036036100ca9190810190610c36565b6101ce565b6040516100dc9190610f21565b60405180910390f35b3480156100f157600080fd5b5061010c60048036036101079190810190610ca2565b610343565b60405161011c9493929190610f8f565b60405180910390f35b34801561013157600080fd5b5061014c60048036036101479190810190610ca2565b6104a3565b6040516101599190610f21565b60405180910390f35b34801561016e57600080fd5b5061018960048036036101849190810190610ca2565b610685565b6040516101969190610eff565b60405180910390f35b3480156101ab57600080fd5b506101c660048036036101c19190810190610ccb565b6108b3565b005b60005481565b6000808351111515610215576040517f08c379a000000000000000000000000000000000000000000000000000000000815260040161020c90610ebf565b60405180910390fd5b6005825111151561025b576040517f08c379a000000000000000000000000000000000000000000000000000000000815260040161025290610e9f565b60405180910390fd5b600080815480929190600101919050555060806040519081016040528060005481526020018481526020018381526020016104b081525060016000805481526020019081526020016000206000820151816000015560208201518160010190805190602001906102cc929190610afe565b5060408201518160020190805190602001906102e9929190610afe565b50606082015181600301559050507f2e7b440a330ae1f1daf94be9d6f51147d582477dfec2ae4223958bdca788c2b360005484846104b06040516103309493929190610f3c565b60405180910390a1600054905092915050565b6001602052806000526040600020600091509050806000015490806001018054600181600116156101000203166002900480601f0160208091040260200160405190810160405280929190818152602001828054600181600116156101000203166002900480156103f55780601f106103ca576101008083540402835291602001916103f5565b820191906000526020600020905b8154815290600101906020018083116103d857829003601f168201915b505050505090806002018054600181600116156101000203166002900480601f0160208091040260200160405190810160405280929190818152602001828054600181600116156101000203166002900480156104935780601f1061046857610100808354040283529160200191610493565b820191906000526020600020905b81548152906001019060200180831161047657829003601f168201915b5050505050908060030154905084565b600080821180156104b657506000548211155b15156104f7576040517f08c379a00000000000000000000000000000000000000000000000000000000081526004016104ee90610edf565b60405180910390fd5b6104ff610b7e565b600160008481526020019081526020016000206080604051908101604052908160008201548152602001600182018054600181600116156101000203166002900480601f0160208091040260200160405190810160405280929190818152602001828054600181600116156101000203166002900480156105c15780601f10610596576101008083540402835291602001916105c1565b820191906000526020600020905b8154815290600101906020018083116105a457829003601f168201915b50505050508152602001600282018054600181600116156101000203166002900480601f0160208091040260200160405190810160405280929190818152602001828054600181600116156101000203166002900480156106635780601f1061063857610100808354040283529160200191610663565b820191906000526020600020905b81548152906001019060200180831161064657829003601f168201915b5050505050815260200160038201548152505090508060600151915050919050565b61068d610b7e565b60008211801561069f57506000548211155b15156106e0576040517f08c379a00000000000000000000000000000000000000000000000000000000081526004016106d790610edf565b60405180910390fd5b6106e8610b7e565b600160008481526020019081526020016000206080604051908101604052908160008201548152602001600182018054600181600116156101000203166002900480601f0160208091040260200160405190810160405280929190818152602001828054600181600116156101000203166002900480156107aa5780601f1061077f576101008083540402835291602001916107aa565b820191906000526020600020905b81548152906001019060200180831161078d57829003601f168201915b50505050508152602001600282018054600181600116156101000203166002900480601f01602080910402602001604051908101604052809291908181526020018280546001816001161561010002031660029004801561084c5780601f106108215761010080835404028352916020019161084c565b820191906000526020600020905b81548152906001019060200180831161082f57829003601f168201915b5050505050815260200160038201548152505090507f92d091b3db2ffa384837c34fe877fabdf833c20eebc5e5216879331933889d8e838260200151836040015184606001516040516108a29493929190610f8f565b60405180910390a180915050919050565b6000821180156108c557506000548211155b15156108d057600080fd5b6108d8610b7e565b600160008481526020019081526020016000206080604051908101604052908160008201548152602001600182018054600181600116156101000203166002900480601f01602080910402602001604051908101604052809291908181526020018280546001816001161561010002031660029004801561099a5780601f1061096f5761010080835404028352916020019161099a565b820191906000526020600020905b81548152906001019060200180831161097d57829003601f168201915b50505050508152602001600282018054600181600116156101000203166002900480601f016020809104026020016040519081016040528092919081815260200182805460018160011615610100020316600290048015610a3c5780601f10610a1157610100808354040283529160200191610a3c565b820191906000526020600020905b815481529060010190602001808311610a1f57829003601f168201915b505050505081526020016003820154815250509050818160600181815250508060016000858152602001908152602001600020600082015181600001556020820151816001019080519060200190610a95929190610afe565b506040820151816002019080519060200190610ab2929190610afe565b50606082015181600301559050507fb335b5dda2cc4db57d89e759a02e07aee7c0872d45f4c36436e57fb21244424b8383604051610af1929190610fe2565b60405180910390a1505050565b828054600181600116156101000203166002900490600052602060002090601f016020900481019282601f10610b3f57805160ff1916838001178555610b6d565b82800160010185558215610b6d579182015b82811115610b6c578251825591602001919060010190610b51565b5b509050610b7a9190610ba7565b5090565b608060405190810160405280600081526020016060815260200160608152602001600081525090565b610bc991905b80821115610bc5576000816000905550600101610bad565b5090565b90565b600082601f8301121515610bdf57600080fd5b8135610bf2610bed82611038565b61100b565b91508082526020830160208301858383011115610c0e57600080fd5b610c198382846110a0565b50505092915050565b6000610c2e8235611084565b905092915050565b60008060408385031215610c4957600080fd5b600083013567ffffffffffffffff811115610c6357600080fd5b610c6f85828601610bcc565b925050602083013567ffffffffffffffff811115610c8c57600080fd5b610c9885828601610bcc565b9150509250929050565b600060208284031215610cb457600080fd5b6000610cc284828501610c22565b91505092915050565b60008060408385031215610cde57600080fd5b6000610cec85828601610c22565b9250506020610cfd85828601610c22565b9150509250929050565b610d108161108e565b82525050565b6000610d218261106f565b808452610d358160208601602086016110af565b610d3e816110e2565b602085010191505092915050565b6000610d5782611064565b808452610d6b8160208601602086016110af565b610d74816110e2565b602085010191505092915050565b6000602c82527f50617373776f7264206d75737420636f6e7461696e206174206c65617374203660208301527f20636861726163746572732100000000000000000000000000000000000000006040830152606082019050919050565b6000601882527f557365726e616d652063616e277420626520656d7074792100000000000000006020830152604082019050919050565b6000808252602082019050919050565b6000608083016000830151610e3e6000860182610e90565b5060208301518482036020860152610e568282610d4c565b91505060408301518482036040860152610e708282610d4c565b9150506060830151610e856060860182610e90565b508091505092915050565b610e998161107a565b82525050565b60006020820190508181036000830152610eb881610d82565b9050919050565b60006020820190508181036000830152610ed881610ddf565b9050919050565b60006020820190508181036000830152610ef881610e16565b9050919050565b60006020820190508181036000830152610f198184610e26565b905092915050565b6000602082019050610f366000830184610e90565b92915050565b6000608082019050610f516000830187610e90565b8181036020830152610f638186610d16565b90508181036040830152610f778185610d16565b9050610f866060830184610d07565b95945050505050565b6000608082019050610fa46000830187610e90565b8181036020830152610fb68186610d4c565b90508181036040830152610fca8185610d4c565b9050610fd96060830184610e90565b95945050505050565b6000604082019050610ff76000830185610e90565b6110046020830184610e90565b9392505050565b6000604051905081810181811067ffffffffffffffff8211171561102e57600080fd5b8060405250919050565b600067ffffffffffffffff82111561104f57600080fd5b601f19601f8301169050602081019050919050565b600081519050919050565b600081519050919050565b6000819050919050565b6000819050919050565b60006110998261107a565b9050919050565b82818337600083830152505050565b60005b838110156110cd5780820151818401526020810190506110b2565b838111156110dc576000848401525b50505050565b6000601f19601f830116905091905056fea265627a7a72305820fd47ef5bf9d92ec0733e04cef27d6d9e5db30f69fc83325f7ac66d7f90c400546c6578706572696d656e74616cf50037",
  "source": "pragma solidity ^0.5.0;\npragma experimental ABIEncoderV2;\n\ncontract Users {\n\n    struct User {\n        uint id;\n        string username;\n        string password;\n        uint elo;\n    }\n\n    event UserAdded(\n        uint id,\n        string username,\n        string password,\n        uint elo\n    );\n\n    event UserRetrieved(\n        uint id,\n        string username,\n        string password,\n        uint elo\n    );\n\n    event EloUpdated(\n        uint id,\n        uint elo\n    );\n\n    uint public userCount = 0;\n    mapping (uint => User) public users;\n\n    /// add a user\n    function addUser(string memory _username, string memory _password) public returns (uint _id) {\n        require(bytes(_username).length>0, \"Username can't be empty!\");\n        require(bytes(_password).length>5, \"Password must contain at least 6 characters!\");\n        userCount++;\n        users[userCount] = User(userCount, _username, _password, 1200);\n        emit UserAdded(userCount, _username, _password, 1200);\n        return userCount;\n    }\n\n    /// get a user\n    function getUser(uint _id) public returns (User memory _user) {\n        require(_id > 0 && _id <= userCount, \"\");\n        User memory u = users[_id];\n        emit UserRetrieved(_id, u.username, u.password, u.elo);\n        return u;\n    }\n\n    /// get elo of a user\n    function getElo(uint _id) public returns (uint _elo) {\n        require(_id > 0 && _id <= userCount, \"\");\n        User memory u = users[_id];\n        return u.elo;\n    }\n\n    /// update elo\n    function updateElo(uint _id, uint _newElo) public {\n        require(_id > 0 && _id <= userCount);\n        User memory _user = users[_id];\n        _user.elo = _newElo;\n        users[_id] = _user;\n        emit EloUpdated(_id, _newElo);\n    }\n\n}",
  "sourcePath": "/home/phong/Desktop/FOSS-2019-Users/src/contracts/Users.sol",
  "compiler": {
    "name": "solc",
    "version": "0.5.0+commit.1d4f565a.Emscripten.clang"
  },
  "schemaVersion": "3.0.2",
  "updatedAt": "2019-12-05T06:54:19.118Z",
  "devdoc": {
    "methods": {}
  },
  "userdoc": {
    "methods": {
      "addUser(string,string)": {
        "notice": "add a user"
      },
      "getElo(uint256)": {
        "notice": "get elo of a user"
      },
      "getUser(uint256)": {
        "notice": "get a user"
      },
      "updateElo(uint256,uint256)": {
        "notice": "update elo"
      }
    }
  }
}