{
  "contractName": "EloGame",
  "abi": [
    {
      "inputs": [],
      "payable": false,
      "stateMutability": "nonpayable",
      "type": "constructor"
    },
    {
      "anonymous": false,
      "inputs": [
        {
          "indexed": false,
          "internalType": "uint256",
          "name": "id",
          "type": "uint256"
        },
        {
          "indexed": false,
          "internalType": "uint256",
          "name": "eloValue",
          "type": "uint256"
        }
      ],
      "name": "PlayerCreated",
      "type": "event"
    },
    {
      "anonymous": false,
      "inputs": [
        {
          "indexed": false,
          "internalType": "uint256",
          "name": "id",
          "type": "uint256"
        },
        {
          "indexed": false,
          "internalType": "bool",
          "name": "completed",
          "type": "bool"
        }
      ],
      "name": "TaskCompleted",
      "type": "event"
    },
    {
      "constant": true,
      "inputs": [
        {
          "internalType": "uint256",
          "name": "",
          "type": "uint256"
        }
      ],
      "name": "player",
      "outputs": [
        {
          "internalType": "uint256",
          "name": "id",
          "type": "uint256"
        },
        {
          "internalType": "uint256",
          "name": "value",
          "type": "uint256"
        }
      ],
      "payable": false,
      "stateMutability": "view",
      "type": "function"
    },
    {
      "constant": true,
      "inputs": [],
      "name": "player1",
      "outputs": [
        {
          "internalType": "uint256",
          "name": "",
          "type": "uint256"
        }
      ],
      "payable": false,
      "stateMutability": "view",
      "type": "function"
    },
    {
      "constant": true,
      "inputs": [],
      "name": "player2",
      "outputs": [
        {
          "internalType": "uint256",
          "name": "",
          "type": "uint256"
        }
      ],
      "payable": false,
      "stateMutability": "view",
      "type": "function"
    },
    {
      "constant": true,
      "inputs": [],
      "name": "taskCountPlayer",
      "outputs": [
        {
          "internalType": "uint256",
          "name": "",
          "type": "uint256"
        }
      ],
      "payable": false,
      "stateMutability": "view",
      "type": "function"
    },
    {
      "constant": false,
      "inputs": [],
      "name": "createPlayer",
      "outputs": [],
      "payable": false,
      "stateMutability": "nonpayable",
      "type": "function"
    },
    {
      "constant": false,
      "inputs": [
        {
          "internalType": "uint256",
          "name": "so",
          "type": "uint256"
        }
      ],
      "name": "startGame",
      "outputs": [],
      "payable": false,
      "stateMutability": "nonpayable",
      "type": "function"
    },
    {
      "constant": false,
      "inputs": [
        {
          "internalType": "uint256",
          "name": "playerWin",
          "type": "uint256"
        }
      ],
      "name": "endGame",
      "outputs": [],
      "payable": false,
      "stateMutability": "nonpayable",
      "type": "function"
    }
  ],
  "bytecode": "0x6080604052600080556000600155600060025534801561001e57600080fd5b506100306001600160e01b0361003516565b6100aa565b6000805460019081018083556040805180820182528281526109606020808301828152948752600381528387209251835593519190940155925483519081529081019190915281517f12f28e1c664876c6dcd6124bcc347d61b2b4da745169cffe68eb780b5b09e8c0929181900390910190a1565b610290806100b96000396000f3fe608060405234801561001057600080fd5b506004361061007c5760003560e01c80639e0551c61161005b5780639e0551c6146100ad578063d0399bb8146100e3578063d30895e414610100578063e5ed1d59146101085761007c565b806244cf3d146100815780633fa9fcf81461009b57806359a5f12d146100a5575b600080fd5b610089610125565b60408051918252519081900360200190f35b6100a361012b565b005b6100896101a0565b6100ca600480360360208110156100c357600080fd5b50356101a6565b6040805192835260208301919091528051918290030190f35b6100a3600480360360208110156100f957600080fd5b50356101bf565b61008961023b565b6100a36004803603602081101561011e57600080fd5b5035610241565b60005481565b6000805460019081018083556040805180820182528281526109606020808301828152948752600381528387209251835593519190940155925483519081529081019190915281517f12f28e1c664876c6dcd6124bcc347d61b2b4da745169cffe68eb780b5b09e8c0929181900390910190a1565b60025481565b6003602052600090815260409020805460019091015482565b80600114156101f8576001805460009081526003602052604080822083018054840190556002548252902001805460001901905561022e565b806002141561022e5760025460009081526003602052604080822060019081018054820190558054835291200180546000190190555b5060006001819055600255565b60015481565b600154610252576001819055610258565b60028190555b5056fea265627a7a72315820decb9ae94b207f8777a174387bf61caa7ab45bc2dbc952c0ac0ab70907df2e2264736f6c634300050c0032",
  "source": "pragma solidity ^0.5.0;\r\n\r\ncontract EloGame {\r\n  uint public taskCountPlayer = 0;\r\n  uint public player1 = 0;\r\n  uint public player2 = 0;\r\n  struct Player {\r\n    uint id;\r\n    uint value;\r\n  }\r\n\r\n  mapping(uint => Player) public player;\r\n  \r\n  event PlayerCreated(\r\n    uint id,\r\n    uint eloValue\r\n  );\r\n\r\n  event TaskCompleted(\r\n    uint id,\r\n    bool completed\r\n  );\r\n\r\n  constructor() public {\r\n    createPlayer();\r\n  }\r\n\r\n  function createPlayer() public {\r\n    taskCountPlayer ++;\r\n    player[taskCountPlayer] = Player(taskCountPlayer, 2400);\r\n    emit PlayerCreated(taskCountPlayer, 2400);\r\n  }\r\n  function startGame(uint so) public{\r\n    if(player1 == 0){\r\n      player1 = so;\r\n    }else{\r\n      player2 = so;\r\n    }\r\n  }\r\n  // function _kCatulate(uint _b) public view returns(uint){\r\n  //         uint  K=0;\r\n  //         if(_b<1600) K=25;\r\n  //         else\r\n  //         if(_b<2000) K=20;\r\n  //         else\r\n  //         if(_b<2400) K=15;\r\n  //         else\r\n  //         if(_b<2400) K=10;\r\n  //         return K;\r\n  // }\r\n  function endGame(uint playerWin) public {\r\n    // uint eloA = 0;\r\n    // uint eloB = 0;\r\n    // uint check = 1;\r\n    // if(playerWin == 1){\r\n    //   eloA = player[player1].value;\r\n    //   eloB = player[player2].value;\r\n    //   uint Qa= 10**(eloA/400);\r\n    //   uint Qb= 10**(eloB/400);\r\n    //   uint Eb= Qb/(Qa+Qb); \r\n    //   uint Ea=Qa/(Qa+Qb);\r\n    //   player[player1].value = eloA + _kCatulate(check-Ea); \r\n    //   player[player2].value = eloB + _kCatulate(1-check-Eb);\r\n    // }else if(playerWin==2){\r\n    //   eloA = player[player2].value;\r\n    //   eloB = player[player1].value;\r\n    //   uint Qa=10**(eloA/400);\r\n    //   uint Qb= 10**(eloB/400);\r\n    //   uint Eb= Qb/(Qa+Qb); \r\n    //   uint Ea=Qa/(Qa+Qb);\r\n    //   player[player2].value = eloA + _kCatulate(check-Ea); \r\n    //   player[player1].value = eloB + _kCatulate(1-check-Eb);\r\n    // }\r\n   \r\n\r\n    if(playerWin == 1){\r\n      player[player1].value += 1;\r\n      player[player2].value -= 1;\r\n    }else if(playerWin==2){\r\n      player[player2].value += 1;\r\n      player[player1].value -= 1;\r\n    }\r\n    player1 = 0;\r\n    player2 = 0;\r\n  }\r\n\r\n  // function toggleCompleted(uint _id) public {\r\n  //   Task memory _task = tasks[_id];\r\n  //   // _task.completed = !_task.completed;\r\n  //   // tasks[_id] = _task;\r\n  //   emit TaskCompleted(_id, _task.completed);\r\n  // }\r\n\r\n}\r\n",
  "sourcePath": "C:/Users/Light/Desktop/OLP/OLPFOSS/BaiLam/OLP-FOSS-2019/UT_UT3/mydocker-ethtodo/ethtodo/contracts/EloGame.sol",
  "compiler": {
    "name": "solc",
    "version": "0.5.12+commit.7709ece9.Emscripten.clang"
  },
  "schemaVersion": "3.0.19",
  "updatedAt": "2019-12-05T07:24:37.754Z",
  "networkType": "ethereum",
  "devdoc": {
    "methods": {}
  },
  "userdoc": {
    "methods": {}
  }
}