{
  "contractName": "SaveGames",
  "abi": [
    {
      "constant": true,
      "inputs": [
        {
          "name": "",
          "type": "uint256"
        }
      ],
      "name": "games",
      "outputs": [
        {
          "name": "id",
          "type": "uint256"
        },
        {
          "name": "status",
          "type": "uint256"
        }
      ],
      "payable": false,
      "stateMutability": "view",
      "type": "function",
      "signature": "0x117a5b90"
    },
    {
      "constant": true,
      "inputs": [],
      "name": "gameCount",
      "outputs": [
        {
          "name": "",
          "type": "uint256"
        }
      ],
      "payable": false,
      "stateMutability": "view",
      "type": "function",
      "signature": "0x4d1975b4"
    },
    {
      "constant": true,
      "inputs": [],
      "name": "IN_PROGRESS",
      "outputs": [
        {
          "name": "",
          "type": "uint256"
        }
      ],
      "payable": false,
      "stateMutability": "view",
      "type": "function",
      "signature": "0x600f150c"
    },
    {
      "constant": true,
      "inputs": [],
      "name": "X_WON",
      "outputs": [
        {
          "name": "",
          "type": "uint256"
        }
      ],
      "payable": false,
      "stateMutability": "view",
      "type": "function",
      "signature": "0x929febb8"
    },
    {
      "constant": true,
      "inputs": [],
      "name": "O_WON",
      "outputs": [
        {
          "name": "",
          "type": "uint256"
        }
      ],
      "payable": false,
      "stateMutability": "view",
      "type": "function",
      "signature": "0xb815d991"
    },
    {
      "anonymous": false,
      "inputs": [
        {
          "indexed": false,
          "name": "id",
          "type": "uint256"
        },
        {
          "indexed": false,
          "name": "posxX",
          "type": "int256[]"
        },
        {
          "indexed": false,
          "name": "posyX",
          "type": "int256[]"
        },
        {
          "indexed": false,
          "name": "posxO",
          "type": "int256[]"
        },
        {
          "indexed": false,
          "name": "posyO",
          "type": "int256[]"
        },
        {
          "indexed": false,
          "name": "status",
          "type": "uint256"
        }
      ],
      "name": "GameSaved",
      "type": "event",
      "signature": "0x7b5f50f2d2d2fe6fdf9c03f43f67d2e092a81933f1a98d5df44d8f938dac1882"
    },
    {
      "anonymous": false,
      "inputs": [
        {
          "indexed": false,
          "name": "id",
          "type": "uint256"
        },
        {
          "indexed": false,
          "name": "posxX",
          "type": "int256[]"
        },
        {
          "indexed": false,
          "name": "posyX",
          "type": "int256[]"
        },
        {
          "indexed": false,
          "name": "posxO",
          "type": "int256[]"
        },
        {
          "indexed": false,
          "name": "posyO",
          "type": "int256[]"
        },
        {
          "indexed": false,
          "name": "status",
          "type": "uint256"
        }
      ],
      "name": "GameLoaded",
      "type": "event",
      "signature": "0xda63cb8472bab4ed85dac571d6ccda2d7605fa9692a38412be30cc3301e14dc8"
    },
    {
      "constant": false,
      "inputs": [
        {
          "name": "_posxX",
          "type": "int256[]"
        },
        {
          "name": "_posyX",
          "type": "int256[]"
        },
        {
          "name": "_posxO",
          "type": "int256[]"
        },
        {
          "name": "_posyO",
          "type": "int256[]"
        },
        {
          "name": "_status",
          "type": "uint256"
        }
      ],
      "name": "saveGame",
      "outputs": [
        {
          "name": "gId",
          "type": "uint256"
        }
      ],
      "payable": false,
      "stateMutability": "nonpayable",
      "type": "function",
      "signature": "0x876b9e52"
    },
    {
      "constant": false,
      "inputs": [
        {
          "name": "_gId",
          "type": "uint256"
        }
      ],
      "name": "loadGame",
      "outputs": [
        {
          "components": [
            {
              "name": "id",
              "type": "uint256"
            },
            {
              "name": "posxX",
              "type": "int256[]"
            },
            {
              "name": "posyX",
              "type": "int256[]"
            },
            {
              "name": "posxO",
              "type": "int256[]"
            },
            {
              "name": "posyO",
              "type": "int256[]"
            },
            {
              "name": "status",
              "type": "uint256"
            }
          ],
          "name": "g",
          "type": "tuple"
        }
      ],
      "payable": false,
      "stateMutability": "nonpayable",
      "type": "function",
      "signature": "0xc3a5d6c3"
    }
  ],
  "bytecode": "0x60806040526000805534801561001457600080fd5b50610dd6806100246000396000f3fe608060405260043610610083576000357c0100000000000000000000000000000000000000000000000000000000900463ffffffff168063117a5b90146100885780634d1975b4146100c6578063600f150c146100f1578063876b9e521461011c578063929febb814610159578063b815d99114610184578063c3a5d6c3146101af575b600080fd5b34801561009457600080fd5b506100af60048036036100aa9190810190610889565b6101ec565b6040516100bd929190610cac565b60405180910390f35b3480156100d257600080fd5b506100db610210565b6040516100e89190610b97565b60405180910390f35b3480156100fd57600080fd5b50610106610216565b6040516101139190610b97565b60405180910390f35b34801561012857600080fd5b50610143600480360361013e91908101906107b2565b61021b565b6040516101509190610b97565b60405180910390f35b34801561016557600080fd5b5061016e6103fa565b60405161017b9190610b97565b60405180910390f35b34801561019057600080fd5b506101996103ff565b6040516101a69190610b97565b60405180910390f35b3480156101bb57600080fd5b506101d660048036036101d19190810190610889565b610404565b6040516101e39190610b75565b60405180910390f35b60016020528060005260406000206000915090508060000154908060050154905082565b60005481565b600081565b6000808651118061022d575060008451115b151561026e576040517f08c379a000000000000000000000000000000000000000000000000000000000815260040161026590610b35565b60405180910390fd5b600082148061027d5750600182145b806102885750600282145b15156102c9576040517f08c379a00000000000000000000000000000000000000000000000000000000081526004016102c090610b15565b60405180910390fd5b600080815480929190600101919050555060c060405190810160405280600054815260200187815260200186815260200185815260200184815260200183815250600160008054815260200190815260200160002060008201518160000155602082015181600101908051906020019061034492919061065c565b50604082015181600201908051906020019061036192919061065c565b50606082015181600301908051906020019061037e92919061065c565b50608082015181600401908051906020019061039b92919061065c565b5060a082015181600501559050507f7b5f50f2d2d2fe6fdf9c03f43f67d2e092a81933f1a98d5df44d8f938dac188260005487878787876040516103e496959493929190610bb2565b60405180910390a1600054905095945050505050565b600181565b600281565b61040c6106a9565b600054821115801561041e5750600082115b151561045f576040517f08c379a000000000000000000000000000000000000000000000000000000000815260040161045690610b55565b60405180910390fd5b6104676106a9565b6001600084815260200190815260200160002060c0604051908101604052908160008201548152602001600182018054806020026020016040519081016040528092919081815260200182805480156104df57602002820191906000526020600020905b8154815260200190600101908083116104cb575b505050505081526020016002820180548060200260200160405190810160405280929190818152602001828054801561053757602002820191906000526020600020905b815481526020019060010190808311610523575b505050505081526020016003820180548060200260200160405190810160405280929190818152602001828054801561058f57602002820191906000526020600020905b81548152602001906001019080831161057b575b50505050508152602001600482018054806020026020016040519081016040528092919081815260200182805480156105e757602002820191906000526020600020905b8154815260200190600101908083116105d3575b5050505050815260200160058201548152505090507fda63cb8472bab4ed85dac571d6ccda2d7605fa9692a38412be30cc3301e14dc860005482602001518360400151846060015185608001518660a0015160405161064b96959493929190610c2f565b60405180910390a180915050919050565b828054828255906000526020600020908101928215610698579160200282015b8281111561069757825182559160200191906001019061067c565b5b5090506106a591906106e0565b5090565b60c0604051908101604052806000815260200160608152602001606081526020016060815260200160608152602001600081525090565b61070291905b808211156106fe5760008160009055506001016106e6565b5090565b90565b600082601f830112151561071857600080fd5b813561072b61072682610d02565b610cd5565b9150818183526020840193506020810190508385602084028201111561075057600080fd5b60005b838110156107805781610766888261078a565b845260208401935060208301925050600181019050610753565b5050505092915050565b60006107968235610d88565b905092915050565b60006107aa8235610d92565b905092915050565b600080600080600060a086880312156107ca57600080fd5b600086013567ffffffffffffffff8111156107e457600080fd5b6107f088828901610705565b955050602086013567ffffffffffffffff81111561080d57600080fd5b61081988828901610705565b945050604086013567ffffffffffffffff81111561083657600080fd5b61084288828901610705565b935050606086013567ffffffffffffffff81111561085f57600080fd5b61086b88828901610705565b925050608061087c8882890161079e565b9150509295509295909350565b60006020828403121561089b57600080fd5b60006108a98482850161079e565b91505092915050565b60006108bd82610d4f565b8084526020840193506108cf83610d37565b60005b82811015610901576108e5868351610968565b6108ee82610d67565b91506020860195506001810190506108d2565b50849250505092915050565b600061091882610d44565b80845260208401935061092a83610d2a565b60005b8281101561095c57610940868351610968565b61094982610d5a565b915060208601955060018101905061092d565b50849250505092915050565b61097181610d74565b82525050565b6000602a82527f47616d65206d75737420626520696e206f6e65206f66207468726565206c656760208301527f616c2073746174657321000000000000000000000000000000000000000000006040830152606082019050919050565b6000601a82527f446f206e6f74207361766520616e20656d7074792067616d65210000000000006020830152604082019050919050565b6000602882527f47616d65204944206d757374206265206265747765656e203120616e6420676160208301527f6d65436f756e74210000000000000000000000000000000000000000000000006040830152606082019050919050565b600060c083016000830151610a806000860182610b06565b5060208301518482036020860152610a98828261090d565b91505060408301518482036040860152610ab2828261090d565b91505060608301518482036060860152610acc828261090d565b91505060808301518482036080860152610ae6828261090d565b91505060a0830151610afb60a0860182610b06565b508091505092915050565b610b0f81610d7e565b82525050565b60006020820190508181036000830152610b2e81610977565b9050919050565b60006020820190508181036000830152610b4e816109d4565b9050919050565b60006020820190508181036000830152610b6e81610a0b565b9050919050565b60006020820190508181036000830152610b8f8184610a68565b905092915050565b6000602082019050610bac6000830184610b06565b92915050565b600060c082019050610bc76000830189610b06565b8181036020830152610bd981886108b2565b90508181036040830152610bed81876108b2565b90508181036060830152610c0181866108b2565b90508181036080830152610c1581856108b2565b9050610c2460a0830184610b06565b979650505050505050565b600060c082019050610c446000830189610b06565b8181036020830152610c56818861090d565b90508181036040830152610c6a818761090d565b90508181036060830152610c7e818661090d565b90508181036080830152610c92818561090d565b9050610ca160a0830184610b06565b979650505050505050565b6000604082019050610cc16000830185610b06565b610cce6020830184610b06565b9392505050565b6000604051905081810181811067ffffffffffffffff82111715610cf857600080fd5b8060405250919050565b600067ffffffffffffffff821115610d1957600080fd5b602082029050602081019050919050565b6000602082019050919050565b6000602082019050919050565b600081519050919050565b600081519050919050565b6000602082019050919050565b6000602082019050919050565b6000819050919050565b6000819050919050565b6000819050919050565b600081905091905056fea265627a7a723058200096262659b791f87d4e74c651e10d152bb67f5a1e68c7670d8c633674f50edb6c6578706572696d656e74616cf50037",
  "source": "pragma solidity ^0.5.0;\npragma experimental ABIEncoderV2;\n\ncontract SaveGames {\n\n    struct Game {\n        uint id;\n        int[] posxX;\n        int[] posyX;\n        int[] posxO;\n        int[] posyO;\n        uint status;\n    }\n\n    event GameSaved(\n        uint id,\n        int[] posxX,\n        int[] posyX,\n        int[] posxO,\n        int[] posyO,\n        uint status\n    );\n\n    event GameLoaded(\n        uint id,\n        int[] posxX,\n        int[] posyX,\n        int[] posxO,\n        int[] posyO,\n        uint status\n    );\n\n    uint public gameCount = 0;\n    mapping (uint => Game) public games;\n    uint constant public IN_PROGRESS = 0;\n    uint constant public X_WON = 1;\n    uint constant public O_WON = 2;\n\n    /// save a game\n    function saveGame(int[] memory _posxX, int[] memory _posyX, int[] memory _posxO, int[] memory _posyO, uint _status) public returns (uint gId) {\n        require(_posxX.length > 0 || _posxO.length > 0, \"Do not save an empty game!\");\n        require(_status == IN_PROGRESS || _status == X_WON || _status == O_WON, \"Game must be in one of three legal states!\");\n        gameCount++;\n        games[gameCount] = Game(gameCount, _posxX, _posyX, _posxO, _posyO, _status);\n        emit GameSaved(gameCount, _posxX, _posyX, _posxO, _posyO, _status);\n        return gameCount;\n    }\n\n    /// load a game\n    function loadGame(uint _gId) public returns (Game memory g) {\n        require(_gId <= gameCount && _gId > 0, \"Game ID must be between 1 and gameCount!\");\n        Game memory _game = games[_gId];\n        emit GameLoaded(gameCount, _game.posxX, _game.posyX, _game.posxO, _game.posyO, _game.status);\n        return _game;\n    }\n}",
  "sourcePath": "/home/phong/Desktop/FOSS-2019-SaveGames/src/contracts/SaveGames.sol",
  "compiler": {
    "name": "solc",
    "version": "0.5.0+commit.1d4f565a.Emscripten.clang"
  },
  "schemaVersion": "3.0.2",
  "updatedAt": "2019-12-05T03:57:17.171Z",
  "devdoc": {
    "methods": {}
  },
  "userdoc": {
    "methods": {
      "loadGame(uint256)": {
        "notice": "load a game"
      },
      "saveGame(int256[],int256[],int256[],int256[],uint256)": {
        "notice": "save a game"
      }
    }
  }
}